:040000000201BB320C
:01000B0032C2
:0100130032BA
:01001B0032B2
:0100230032AA
:01002B0032A2
:01003300329A
:01003B003292
:01004300328A
:01004B003282
:01005300327A
:01005B003272
:01006300326A
:03006B0002058704
:0300730002059FE4
:03007B000205DF9C
:030083000205E093
:03008B000205E18A
:030093000205F76C
:03009B0002063F1B
:0300A30002064012
:0300AB0002064109
:0300B30002064200
:0300BB00020643F7
:0300C300020644EE
:0300CB00020645E5
:0300D300020646DC
:0300DB00020647D3
:0300E300020648CA
:0300EB00020649C1
:0300F30002064AB8
:0300FB0002064BAF
:0301030002064CA5
:03010B0002064D9C
:0301130002064E93
:03011B0002064F8A
:0301230002065081
:03012B0002065178
:030133000206526F
:03013B0002065366
:030143000206545D
:03014B0002065554
:030153000206564B
:03015B0002065742
:0301630002065839
:03016B0002065930
:0301730002065A27
:03017B0002065B1E
:0301830002065C15
:03018B0002065D0C
:0301930002065E03
:03019B0002065FFA
:0301A300020660F1
:0301AB00020661E8
:0301B300020662DF
:030220000201B622
:0501B60012036F80FE42
:1002230090E6017403F0E0FA90E60174404AF000AE
:1002330000000090E60B7403F00000000090E6124B
:1002430074A2F00000000090E61374A2F000000016
:100253000090E61474E2F00000000090E61574E2EA
:10026300F00000000090E611E0FA547FF000000077
:100273000090E610E0FA547FF00000000090E604DE
:100283007480F00000000090E6047482F000000027
:100293000090E6047404F00000000090E604740685
:1002A300F00000000090E6047408F00000000090E5
:1002B300E604E4F00000000090E6497482F00000D8
:1002C300000090E6497482F00000000090E6497453
:1002D30084F00000000090E6497484F00000000000
:1002E30090E6187410F00000000090E61A7408F00D
:1002F3000000000090E61B7408F00000000090E688
:10030300957480F00000000090E6957480F0000082
:10031300000043A8800000000090E60274A8F000EB
:1003230000000090E603740BF00000000090E670FC
:10033300E4F00000000090E609E4F0000000009003
:10034300E624E4F00000000090E6257408F00000C5
:10035300000090E626E4F00000000090E6277454C5
:10036300F00000000075B40175A00022C20090E601
:1003730080E0440AF09005DC120C8E90E680E05495
:10038300F7F090E600E054E7F090E100120B8EE501
:1003930000D2E890E668E04408F090E65CE04401AF
:1003A300F090E65CE04402F090E65CE04420F090DC
:1003B300E65CE04410F012022375A0013000051240
:1003C3000663C20090E6A4E0FA20E2F075A0009074
:1003D300E6047480F00000000090E6047482F000EC
:1003E30000000090E6047404F00000000090E604AE
:1003F3007406F00000000090E6047408F0000000AA
:100403000090E604E4F00000000090E6497482F0F6
:100413000000000090E6497482F00000000090E6BE
:10042300497484F00000000090E6497484F00000F1
:10043300000090E6957480F00000000090E695744B
:1004430080F0000000000000000000000000000039
:1004530000000000000075A0010203BFAA82BAB128
:100463002990E6BAE0F5821207A1AA82AB83EA4B90
:1004730060188A828B83E090E740F090E68AE4F08C
:1004830090E68B7401F07582012275820022E58269
:10049300FA7014AA17AB18AC198A828B838CF0E418
:1004A300120B757582012275820022E582FA6003C0
:1004B300020571E517600302057190E6837402F08B
:1004C300E0FA90E68374204AF090E6837404F0E047
:1004D300FA90E68374204AF090E6837416F0E0FA0B
:1004E30090E68374204AF090E6837418F0E0FA9063
:1004F300E68374204AF090E6047480F00000000064
:1005030090E6047482F00000000090E604E4F0003A
:1005130000000090E6047480F00000000090E60400
:100523007484F00000000090E604E4F00000000092
:1005330090E6047480F00000000090E6047486F0F6
:100543000000000090E604E4F00000000090E604E0
:100553007480F00000000090E6047488F00000004E
:100563000090E604E4F00000000075820122758229
:10057300002275820122AA82BA01047A0180027ADA
:10058300008A8222C0E0C082C083D2005391EF90E0
:10059300E65D7401F0D083D082D0E032C0E0C08247
:1005A300C083C0D075D008902500E02401F0A3E0FB
:1005B3003400F0902500E0FAA3E0FBBA400CBB1F27
:1005C30009B201902500E4F0A3F05391EF90E65DAA
:1005D3007402F0D0D0D083D082D0E0323232C0E087
:1005E300C082C0835391EF90E65D7410F0D083D046
:1005F30082D0E032C022C0E0C0F0C082C083C0021B
:10060300C003C004C005C006C007C000C001C0D0FD
:1006130075D000120A2C5391EF90E65D7420F0D050
:10062300D0D001D000D007D006D005D004D003D05D
:1006330002D083D082D0F0D0E0D0223232323232B4
:100643003232323232323232323232323232323287
:100653003232323232323232323232323232323277
:021541000000A8
:103E000012010002FFFFFF40B4040118010001028B
:103E100000010A060002FFFFFF40010009022E0018
:103E200001010080320904000004FFFFFF000705C4
:103E300002020002000705040200020007058602D4
:103E40000002000705880200020009022E0001019D
:103E50000080320904000104FFFFFF000705020291
:103E600040000007050402400000070586024000EC
:103E7000000705880240000004030904080342000B
:103E8000530044000C0334006500760065007200A6
:0E3E90000C036900460061006300650000003D
:0601EA00E478FFF6D8FDE9
:1001C8007902E94400601B7A019015417800759224
:1001D80025E493F2A308B800020592D9F4DAF2757F
:0201E80092FF84
:0C02140075114A75123E75131C75143EDE
:1006630090E6B9E0FA24F45003020764EA2A2A90D8
:1006730006767302069A0206AF0207640206C402F4
:1006830007640207640206D90207640206DF020652
:10069300F70207120207461207F8E5826003020712
:1006A3009990E6A0E0FA4401F0020799120882E566
:1006B30082600302079990E6A0E0FA4401F0020782
:1006C30099120934E582600302079990E6A0E0FAE3
:1006D3004401F0020799120A59020799120575AAF3
:1006E3008290E740EAF090E68AE4F090E68B7401AA
:1006F300F002079990E6BAE0F582120579E5826087
:100703000302079990E6A0E0FA4401F002079990EA
:10071300E6BCE0FA7517107518007519408A821245
:100723000491E582700A90E6A0E0FA4401F0806645
:1007330090E740E510F090E68AE4F090E68B7401D0
:10074300F0805390E6BCE0FA90E6BAE0F5178A82AF
:100753001204AEE582703F90E6A0E0FA4401F08017
:100763003590E6B9E0F58212045FE582702890E6E1
:10077300B9E0FA7B00C002C00374C1C0E07413C0C7
:10078300E07480C0E0120D08E58124FBF58190E65A
:10079300A0E0FA4401F090E6A0E04480F022AA82AF
:1007A300747F5AFB24F74049EB2B2B9007B273025B
:1007B30007CD0207D10207E40207F40207E80207A4
:1007C300F40207EC0207F40207F090E6A022EA30F5
:1007D300E7067AA27BE680047AA17BE68A828B8392
:1007E3002290E6A32290E6A42290E6A52290E6A614
:1007F300229000002290E6B8E0FABA8002800ABA9A
:1008030081028005BA8250801590E740E4F090E7BA
:1008130041F090E68AF090E68B7402F0805D90E6FA
:10082300BCE0F5821207A1AA82AB83EA4B7003F501
:1008330082228A828B83E0FA30E0047A0180027A92
:100843000090E740EAF090E741E4F090E68AF09008
:10085300E68B7402F0802490E6B8E0FA7B00C002D5
:10086300C00374E1C0E07413C0E07480C0E0120DF3
:1008730008E58124FBF581758200227582012290AF
:10088300E6B8E0FA6008BA0202802302092774FE80
:10089300C0E07413C0E07480C0E0120D0815811528
:1008A30081158190E6A0E0FA4401F002093090E658
:1008B300BAE0704690E6BCE0F5821207A1AA82ABCB
:1008C3008390E6BCE0FC7D00C002C003C004C00509
:1008D3007424C0E07414C0E07480C0E0120D08E515
:1008E3008124FBF581D003D0028A828B83E0FC5301
:1008F30004FE8A828B83ECF0803390E6BAE0FA7BC5
:1009030000C002C003743BC0E07414C0E07480C034
:10091300E0120D08E58124FBF58190E6A0E0FA449E
:1009230001F0800990E6B9E0F58202045F75820167
:100933002290E6B8E0FA7B00C002C0037457C0E01F
:100943007414C0E07480C0E0120D08E58124FBF547
:100953008190E6B8E0FA6008BA02028027020A1F13
:1009630090E6BAE0FABA0203020A287469C0E07496
:1009730014C0E07480C0E0120D0815811581158143
:100983007582002290E6BAE0706E90E6BCE0F582D4
:100993001207A1AA82AB8390E6BCE0FC7D00C002F3
:1009A300C003C004C005748DC0E07414C0E074803B
:1009B300C0E0120D08E58124FBF581D003D002EAE3
:1009C3004B7003F582228A828B83E0FC4304018A05
:1009D300828B83ECF090E6BCE0FA53020F90E6BC06
:1009E300E05480C423541FFB90E683EB2AF090E687
:1009F30083E0FA4420F0802D90E6BAE0FA7B00C051
:100A030002C003749AC0E07414C0E07480C0E012A2
:100A13000D08E58124FBF5817582002290E6B9E09B
:100A2300F58202045F75820122D310AF01C3C0D0E7
:100A330074B7C0E07414C0E07480C0E0120D0815F0
:100A4300811581158175111C75123E75134A751434
:100A53003ED0D092AF2290E6BBE0FABA01028013F7
:100A6300BA02028036BA03028054BA0603020B2587
:100A7300020B4D74CBC0E07414C0E07480C0E0126C
:100A83000D081581158115817A007B3E90E6B3EB45
:100A9300F07A007B3E90E6B4EAF02274DEC0E074A4
:100AA30014C0E07480C0E0120D0815811581158112
:100AB30090E6B3E512F0AA1190E6B4EAF0227A7850
:100AC3007B3E7C8090E6BAE0FD7E008E070EEDB59E
:100AD300070280368A828B838CF01212CE2AFAE4C4
:100AE3003BFB74012AFFE43BF88C018F82888389E6
:100AF300F01212CEFFBF030280067A007B007C0057
:100B0300EA4B4C6005C3ED9E50C1EA4B4C600B9021
:100B1300E6B3EBF090E6B4EAF02290E6A0E04401FD
:100B2300F02274F5C0E07414C0E07480C0E0120DCC
:100B3300081581158115817A127B3E90E6B3EBF09F
:100B43007A127B3E90E6B4EAF02290E6BBE0FA7BB1
:100B530000C002C0037416C0E07415C0E07480C006
:100B6300E0120D08E58124FBF58190E6A0E0440145
:020B7300F0226E
:1013C100556E68616E646C65642056656E646F72FB
:1013D10020436F6D6D616E643A20253032780A00CA
:1013E100556E657870656374656420476574205334
:1013F10074617475733A20253032780A0028436C81
:10140100656172292052656D6F74652057616B6546
:101411007570206E6F7420737570706F727465646F
:101421002E0A00756E7374616C6C20656E64706F4A
:10143100696E7420253032580A00756E73757070AC
:101441006F7274656420657020666561747572657C
:1014510020253032780053657420466561747572B9
:101461006520253032780A00285365742920526599
:101471006D6F74652057616B657570206E6F742098
:10148100737570706F727465642E0A005374616CA9
:101491006C2065702025640A00756E737570706F1D
:1014A100727465642065702066656174757265206B
:1014B100253032780A0048692053706565642049F7
:1014C1006E746572727570740A00476574204465A4
:1014D1007669636520436F6E6669670A00476574C4
:1014E10020436F6E66696720446573637269707427
:1014F1006F720A00476574204465766963652051FF
:1015010075616C696669657220446573637269709F
:10151100746F720A00556E68616E646C6564204771
:1015210065742044657363726970746F723A202523
:051531003032780A00D1
:100B750020F71030F6118883A88220F507F6A883A0
:090B850075830022F280F7F022D2
:03004300023F0079
:03005300023F0069
:103F00000205870002059F000205DF000205E000B0
:103F10000205E1000205F70002063F000206540018
:103F2000020640000206410002064200020643006B
:103F3000020644000206450002064600020647004B
:103F400002064800020654000206490002064A0022
:103F500002064B0002064C0002064D0002064E000F
:103F600002064F00020654000206540002065400E6
:103F700002065000020651000206520002065300DB
:103F800002065500020656000206570002065800B7
:103F90000206590002065A0002065B0002065C0097
:103FA00002065D0002065E0002065F000206600077
:083FB000020661000206620036
:1001F0007800E84400600A7900759225E4F309D894
:10020000FC7800E84400600C7900902500E4F0A33D
:04021000D8FCD9FA43
:100B8E00D310AF01C3C0D0AA82AB8390E600E0546D
:100B9E0018C423541FFCB40100E433FC60047C0130
:100BAE00801690E600E05418C423541FFDBD0104C6
:100BBE007D0280027D048D04D2CDD2CC8C177518A7
:100BCE0000751900751A009071B075F00BE4C00233
:100BDE00C003C0041212EAAD82AE83AFF0F8D004A7
:100BEE00D003D0028A178B18751900751A008D82E2
:100BFE008E838FF0E8C004121358AD82AE83AFF02F
:100C0E00F8D0040DBD00090EBE00050FBF0001088F
:100C1E00E8C313F8EF13FFEE13FEED13FD74FFC3DD
:100C2E009DFD74FF9EFE8ECB7E00EC60047A0180EB
:100C3E00027A00EA2DF5CAD2CAC29FD29EC29DD2B6
:100C4E009C438780D299D0D092AF223098FD85995F
:100C5E0082C29822AA8210990280FB8A9922AA82C5
:100C6E00BA0A0A75820DC002120C62D0028A82C0C4
:100C7E0002120C62D002BA0D0675820A020C6222B2
:100C8E00AA82AB8390E600E05418C423541FFCB430
:100C9E000100E433FC60067CB17D00801C90E60010
:100CAE00E05418C423541FFEBE01067E617F0180EE
:100CBE00047EC27F028E048F058C178D1815177453
:100CCE00FFB517021518E517451870F11ABAFF018E
:100CDE001BEA4B70E422C016858116120C6CD016DE
:100CEE002285823285833385F034E4F52FF530F595
:100CFE0031851535900CE4020DC8C016858116E5B8
:100D0E001624FBF535E4F52FF530F531E51624FB09
:100D1E00F88632088633088634900CE4120DC8D05B
:100D2E001622AA82C025C026C0277447C0E0740DC3
:100D3E00C0E0C023C0248A82221581158115810549
:100D4E002DE4B52D02052E22AA8274302AFA24C66D
:100D5E00500A74072AFA3002034302208A82020DD7
:100D6E0030E582FAC4540FF582C002120D56D0023D
:100D7E00740F5AF582020D56858217AB28AC29AD39
:100D8E002AAE2BAF2C751820EF2FFFEE235401FA4D
:100D9E004207EB2BFBEC33FCED33FDEE33FEC3EFE2
:100DAE0095174008EFC39517FF430301D518D98B4C
:100DBE00288C298D2A8E2B8F2C22858223858324A5
:100DCE00852F25853026853127E4F52DF52EAA327F
:100DDE00AB33AC348A828B838CF01212CEFD74014D
:100DEE002AF532E43BF5338C34EDFA70030212AF80
:100DFE00BA250280030212A7C203C204C205C206AC
:100E0E00C207C208C209C20A7536007537007DFFD7
:100E1E00AE32AF33AB348E828F838BF01212CEFA9A
:100E2E00A3AE82AF838E328F338B34BA25078A827C
:100E3E00120D3080998A04BC3000402A8A04EC24BA
:100E4E00C64023BDFF13E53775F00AA4FCEA24D093
:100E5E002CF53770C1D20480BDED75F00AA4FCEA02
:100E6E0024D02CFD80B0BA2E07BDFFAA7D0080A62F
:100E7E008A04BC6100400E8A04EC248540075302AC
:100E8E00DFD2028002C202BA20028055BA2B028043
:100E9E004BBA2D028041BA4202804BBA43028050B7
:100EAE00BA4403021059BA460302106FBA4903023C
:100EBE001059BA4C028034BA4F03021060BA500374
:100ECE00020FF0BA5302804CBA5503021065BA589D
:100EDE000302106A021073D203020E24D205020E10
:100EEE0024D206020E24D208020E24D209020E24A7
:100EFE0030080AE53514F888358602800FE535246A
:100F0E00FEF888358603088604188B028A82120D35
:100F1E003002107CE53524FDF888358603088604FA
:100F2E0008860618188B288C298E2A8528828529F2
:100F3E0083852AF0C0051212B6AB82AC83D005BDF4
:100F4E00FF028B0520032CC3EB95375026E537C3E4
:100F5E009BF537AC378C061C8C37EE6014758220EF
:100F6E00C003C004C005120D30D005D004D00380DC
:100F7E00E48C378D04852882852983852AF0121208
:100F8E00CEFDFA602F8C051CC374808DF063F0804B
:100F9E0095F050208A82C003C004120D30D004D0C8
:100FAE0003AD28AE29AF2A0DBD00010E8D288E2966
:100FBE008F2A80C120030302107CC3EB95374003B8
:100FCE0002107CE537C39BF537AC378C051C8C378C
:100FDE00ED700302107A758220C004120D30D00419
:100FEE0080E9E53524FDF8883586050886060886ED
:100FFE000718188D288E298F2AAD2ABD800040042F
:10100E007A438014BD600040047A50800BBD4000CE
:10101E0040047A4980027A588A82C002120D3075D5
:10102E00823A120D30758230120D30758278120DA3
:10103E0030D002BA4902800BBA500280068529824E
:10104E00120D6F852882120D6F8023D20775360A16
:10105E00801C753608801775360A8012753610801A
:10106E000DD20A80098A82120D3080028C37300A26
:10107E005AE53524FCF88835860408860508860668
:10108E000886071818188C288D298E2A8F2B7528FC
:10109E0036752915752A8085283985293A852A3B82
:1010AE0074012539FFE4353AFCAD3B8F288C298D30
:1010BE002A853982853A83853BF01212CEFCFA706E
:1010CE0003020DDC8A82120D3080CCE536700302ED
:1010DE000DDC75384130082BE53514F88835E6FD02
:1010EE003395E0FEFFFC8D288E298F2A8C2B20074E
:1010FE005EAC287D007E007F008C288D298E2A8F85
:10110E002B804C30091FE53524FCF8883586040801
:10111E0086050886060886071818188C288D298ECD
:10112E002A8F2B802AE53524FEF88835860408861A
:10113E000518ED3395E0FEFF8C288D298E2A8F2B16
:10114E0020070CAC28AD297E007F008E2A8F2B3015
:10115E000722E52B30E71BC3E49528FCE49529FD17
:10116E00E4952AFEE4952BFF8C288D298E2A8F2B51
:10117E008002C207D20BA8387C00752C00853682FF
:10118E00C004C000120D86D000D004200B0DE52C3B
:10119E00C4FDE6FE4DF61888388002A62C0C8C0392
:1011AE00B20BE5284529452A452B70CE88388C038D
:1011BE00E5377003753701200424200321EB04FC6E
:1011CE00AD37C3EC9D5015758220C003C004C00519
:1011DE00120D30D005D004D0031D80E68D373007B8
:1011EE000E75822DC003120D30D00315378023EB00
:1011FE00602030050E75822BC003120D30D0031502
:10120E0037800F30060C758220C003120D30D003CC
:10121E001537200324AC378C051C8C37C3EB9D503F
:10122E002B3004047D3080027D208D82C003C004EB
:10123E00120D30D004D00380DEC3EB95375008E595
:10124E0037C39BF537800775370080028C37A83877
:10125E008B041BEC6026B20B200B0A08E6C4540F5D
:10126E00FC8C2C80078604740F5CF52C852C82C0B8
:10127E0003C000120D56D000D00380D42003030209
:10128E000DDCAB378B041BEC7003020DDC7582207A
:10129E00C003120D30D00380EB8A82120D30020D86
:0812AE00DC852D82852E8322D0
:0B1536003C4E4F20464C4F41543E00FD
:1012B600AA82AB831212CE6003A380F8C3E5829A9A
:0812C600F582E5839BF583220C
:0D01BB007581411213BDE58260030201B69B
:1012CE0020F71430F6148883A88220F507E6A88349
:1012DE0075830022E280F7E49322E022AAF0FBE578
:1012EE00828517F0A4FCADF0E5838517F0A42DFDE3
:1012FE00E435F0FEE5828518F0A42DFDE5F03EFE06
:10130E00E433FFEA8517F0A42EFEE5F03FFFE583F8
:10131E008518F0A42EFEE5F03FFFE5828519F0A4B6
:10132E002EFEE5F03FFFEB8517F0A42FFFEA8518A0
:10133E00F0A42FFFE5838519F0A42FFFE582851A0F
:10134E00F0A42F8EF08D838C8222FB7A20E4FCFD9C
:10135E00FEFFE5822582F582E58333F583E5F033E2
:10136E00F5F0EB33FB4017DAE98042E5822582F592
:10137E0082E58333F583E5F033F5F0EB33FBEC33A5
:10138E00FCED33FDEE33FEEF33FFEC9517ED9518C4
:10139E00EE9519EF951A4013EC9517FCED9518FD87
:1013AE00EE9519FEEF951AFF438201DABEEB227518
:0313BE0082002288
:00000001FF
